:020000040800F2
:1000000000000120D108000821090008210900088A
:10001000210900082109000821090008000000004A
:10002000000000000000000000000000210900089E
:10003000210900080000000021090008210900082A
:10004000000000002109000821090008210900081A
:1000500021090008210900082109000821090008D8
:1000600021090008210900082109000800000000FA
:100070000000000000000000000000000000000080
:10008000000000000000000021090008000000003E
:10009000000000000000000000000000210900082E
:1000A0002109000821090008210900082109000888
:1000B00021090008210900080000000021090008AA
:1000C0002109000821090008210900082109000868
:1000D00021090008000000000000000000000000EE
:1000E000210900082109000821090008000000007A
:1000F0000000000000000000000000000000000000
:10010000000000002109000800000000210900088B
:1001100000000000000000000000000000000000DF
:1001200000000000000000000000000000000000CF
:1001300000000000000000000000000000000000BF
:10014000000000000000000000000000210900087D
:10015000000000000000000000000000000000009F
:10016000210900082109000800000000000000002B
:10017000000000000000000000000000000000007F
:10018000000000002109000800000000000000003D
:040190002109000839
:1001940010B5054C237833B9044B13B10448AFF3BD
:1001A40000800123237010BD4404002000000000DF
:1001B400880A000808B5034B1BB103490348AFF391
:1001C400008008BD0000000048040020880A0008E0
:1001D40080B483B000AF7860084611461A460346DF
:1001E400FB700B46BB7013467B70204B1A6B7B78FD
:1001F400012101FA03F31D4913430B63BB78002B60
:1002040016D07B681A68FB785B00012101FA03F3BE
:100214001A437B681A607B681A68FB785B000133B9
:10022400012101FA03F3DB431A407B681A6016E0EC
:100234007B681A68FB785B00012101FA03F3DB4356
:100244001A407B681A607B681A68FB785B0001338C
:10025400012101FA03F3DB431A407B681A6000BFF3
:100264000C37BD465DF8047B704700BF0038024080
:1002740080B483B000AF78600B46FB701346BB704C
:100284007B681A68FB785B00012101FA03F31340D1
:10029400002B18D0BB78002B09D07B685A69FB78F7
:1002A400012101FA03F31A437B685A6109E07B6870
:1002B4005A69FB78012101FA03F3DB431A407B6896
:1002C4005A61002300E0012318460C37BD465DF84F
:1002D400047B704780B483B000AF78600B46FB703A
:1002E4001346BB70BB78012B1CD0022B31D0002BE2
:1002F40000D045E07B68DA68FB785B00012101FAF5
:1003040003F3DB431A407B68DA607B68DA68FB78C6
:100314005B000133012101FA03F3DB431A407B68DC
:10032400DA602DE07B68DA68FB785B00012101FA72
:1003340003F31A437B68DA607B68DA68FB785B0056
:100344000133012101FA03F3DB431A407B68DA60CD
:1003540016E07B68DA68FB785B00012101FA03F39D
:10036400DB431A407B68DA607B68DA68FB785B0001
:100374000133012101FA03F31A437B68DA6000BFF9
:1003840000BF0C37BD465DF8047B704780B483B072
:1003940000AF78600B46FB707B681A68FB785B00E3
:1003A400012101FA03F31340002B07D07B685A693B
:1003B400FB78012101FA03F3134006E07B681A6914
:1003C400FB78012101FA03F3134018460C37BD46AC
:1003D4005DF8047B7047000080B500AF0123002264
:1003E4000C212A48FFF7F4FE012300220D2127489F
:1003F400FFF7EEFE012300220E212448FFF7E8FE5A
:10040400012300220F212148FFF7E2FE01230122EC
:1004140004211E48FFF7DCFE0123012205211B48AD
:10042400FFF7D6FE0123012206211848FFF7D0FE6C
:100434000123012200211548FFF7CAFE01230122EE
:1004440001211248FFF7C4FE0123012202210F48B3
:10045400FFF7BEFE0123012203210C48FFF7B8FE7B
:1004640002220C210948FFF735FF02220D2107481B
:10047400FFF730FF02220E210448FFF72BFF022270
:100484000F210248FFF726FF00BF80BD0004024091
:1004940080B582B000AF00237B604CE0294A7B68C2
:1004A40013441B78012219462748FFF7E1FE002375
:1004B4003B6031E0254A3B6813441B7819462248C7
:1004C400FFF764FF0346002B23D000BF1F4A3B689D
:1004D40013441B7819461C48FFF758FF0346002BAA
:1004E400F4D11B493A6813465B001344CA187B686D
:1004F40013441B78092B0CD815493A6813465B0042
:100504001344CA187B6813441A78124B1A7000F00B
:100514002FF83B6801333B603B68032BCADD094A73
:100524007B6813441B78002219460748FFF7A0FE96
:100534007B6801337B607B68022BAFDD00BF08372B
:10054400BD4680BD040000200004024000000020DD
:10055400080000206004002080B400AF034B1B7827
:100564001846BD465DF8047B704700BF6004002058
:1005740080B500AFFFF7F0FF0346092B00F2EA80D5
:1005840001A252F823F000BFB5050008DF050008FA
:1005940009060008330600085D06000887060008FF
:1005A400B1060008DB060008050700082F0700084D
:1005B400002200216848FFF75BFE00220121664803
:1005C400FFF756FE002202216348FFF751FE002286
:1005D40003216148FFF74CFEBCE0012200215E4884
:1005E400FFF746FE002201215B48FFF741FE00228F
:1005F40002215948FFF73CFE002203215648FFF729
:1006040037FEA7E0002200215348FFF731FE012204
:1006140001215148FFF72CFE002202214E48FFF72A
:1006240027FE002203214C48FFF722FE92E001221C
:1006340000214948FFF71CFE012201214648FFF72B
:1006440017FE002202214448FFF712FE0022032174
:100654004148FFF70DFE7DE0002200213E48FFF7F0
:1006640007FE002201213C48FFF702FE012202217D
:100674003948FFF7FDFD002203213748FFF7F8FD55
:1006840068E0012200213448FFF7F2FD0022012135
:100694003148FFF7EDFD012202212F48FFF7E8FD65
:1006A400002203212C48FFF7E3FD53E00022002140
:1006B4002948FFF7DDFD012201212748FFF7D8FD76
:1006C400012202212448FFF7D3FD002203212248FE
:1006D400FFF7CEFD3EE0012200211F48FFF7C8FDD1
:1006E400012201211C48FFF7C3FD012202211A48FF
:1006F400FFF7BEFD002203211748FFF7B9FD29E0EB
:10070400002200211448FFF7B3FD00220121124802
:10071400FFF7AEFD002202210F48FFF7A9FD0122D9
:1007240003210D48FFF7A4FD14E0012200210A482B
:10073400FFF79EFD002201210748FFF799FD0022E3
:1007440002210548FFF794FD012203210248FFF727
:100754008FFD00BF00BF80BD0004024080B500AF24
:10076400FFF73AFEFFF794FEFCE7000080B500AF08
:10077400164BD3F88830154A43F47003C2F8883016
:10078400134B1B68124A43F001031360104B002201
:100794009A600F4B1B680E4A23F0847323F4803352
:1007A40013600B4B0B4A5A60094B1B68084A23F42D
:1007B40080231360064B0022DA6000F00DF8034B2F
:1007C4004FF000629A6000BF80BD00BF00ED00E002
:1007D400003802401030002480B483B000AF0023FE
:1007E4007B6000233B60354B1B68344A43F4803301
:1007F4001360324B1B6803F400333B607B680133A6
:100804007B603B68002B03D17B68B3F5A04FF0D12C
:100814002A4B1B6803F40033002B02D001233B60F6
:1008240001E000233B603B68012B40D1234B1B6C50
:10083400224A43F080531364214B1B68204A43F43B
:10084400404313601D4B1D4A9B6893601B4B1B4A1E
:100854009B689360194B9B68184A43F480539360D8
:10086400164B184A5A60154B1B68144A43F08073A0
:10087400136000BF114B1B6803F00073002BF9D009
:10088400114B40F202721A600C4B9B680B4A23F026
:1008940003039360094B9B68084A43F00203936087
:1008A40000BF064B9B6803F00C03082BF9D100BF73
:1008B4000C37BD465DF8047B704700BF003802402A
:1008C4000070004019544107003C02400D48854621
:1008D4000D480E490E4A002302E0D458C450043394
:1008E400C4188C42F9D30B4A0B4C002301E013606B
:1008F4000432A242FBD3FFF739FF00F011F8FFF7EF
:100904002DFFFEE700000120000000204404002029
:10091400B00A00084404002088040020FEE7000018
:1009240070B50D4E0D4D761BB61006D00024013463
:1009340055F8043B9847A642F9D1094E094D761B58
:1009440000F0A0F8B61006D00024013455F8043B9A
:100954009847A642F9D170BDA40A0008A40A000869
:10096400AC0A0008A40A0008024B13B1024800F0C4
:1009740005B87047000000008D09000800230146F7
:100984001A46184600F01EB838B50A4C0A4D641BC6
:10099400A4100AD004F18043013B05EB8305013C1C
:1009A40055F804399847002CF9D1BDE8384000F0D7
:1009B4006FB800BFB00A0008AC0A0008704700BF57
:1009C400704700BF2DE9F8432B4D0646286898462A
:1009D4000F469146FFF7F2FF284B1C68D4F84831C4
:1009E400002B3DD05A681F2A0DDC02F1010C16BB06
:1009F4000232C3F804C0286843F82270FFF7E0FF0E
:100A04000020BDE8F8831E4B7BB34FF4C870AFF3EE
:100A14000080034648B3D4F848210021C0E90021EE
:100A24004FF0010CC4F848010A46C0F88811C0F818
:100A34008C11002EDCD003EB82010124C1F88890D4
:100A4400D3F8880194402043022EC3F88801C1F8EA
:100A54000881CDD1D3F88C110C43C3F88C41C7E77E
:100A640004F5A673C4F84831BCE72868FFF7A8FF6B
:100A74004FF0FF30C5E700BF40040020A00A000883
:100A840000000000F8B500BFF8BC08BC9E467047E3
:0C0A9400F8B500BFF8BC08BC9E467047D7
:040AA000180000201A
:080AA4006D090008B90100080A
:040AAC0095010008A8
:100AB0000C0D0E0F040506000102030405060708CD
:100AC000092A0023000000000000000004030020A9
:100AD0006C030020D4030020000000000000000090
:100AE0000000000000000000000000000000000006
:100AF00000000000000000000000000000000000F6
:100B000000000000000000000000000000000000E5
:100B100000000000000000000000000000000000D5
:100B200000000000000000000000000000000000C5
:100B300000000000000000000000000000000000B5
:100B400000000000000000000000000000000000A5
:100B50000000000000000000000000000000000095
:100B60000000000000000000000000000000000085
:100B700001000000000000000E33CDAB34126DE622
:100B8000ECDE05000B00000000000000000000008B
:100B90000000000000000000000000000000000055
:100BA0000000000000000000000000000000000045
:100BB0000000000000000000000000000000000035
:100BC0000000000000000000000000000000000025
:040EF0006404002076
:04000005080008D116
:00000001FF
